{
  "contractName": "SupplyChain",
  "abi": [
    {
      "constant": true,
      "inputs": [
        {
          "name": "",
          "type": "uint256"
        }
      ],
      "name": "products",
      "outputs": [
        {
          "name": "name",
          "type": "string"
        },
        {
          "name": "productId",
          "type": "uint256"
        },
        {
          "name": "status",
          "type": "string"
        },
        {
          "name": "timestamp",
          "type": "uint256"
        }
      ],
      "payable": false,
      "stateMutability": "view",
      "type": "function"
    },
    {
      "constant": true,
      "inputs": [],
      "name": "owner",
      "outputs": [
        {
          "name": "",
          "type": "address"
        }
      ],
      "payable": false,
      "stateMutability": "view",
      "type": "function"
    },
    {
      "constant": true,
      "inputs": [],
      "name": "productCount",
      "outputs": [
        {
          "name": "",
          "type": "uint256"
        }
      ],
      "payable": false,
      "stateMutability": "view",
      "type": "function"
    },
    {
      "inputs": [],
      "payable": false,
      "stateMutability": "nonpayable",
      "type": "constructor"
    },
    {
      "anonymous": false,
      "inputs": [
        {
          "indexed": true,
          "name": "productId",
          "type": "uint256"
        },
        {
          "indexed": false,
          "name": "name",
          "type": "string"
        },
        {
          "indexed": false,
          "name": "status",
          "type": "string"
        },
        {
          "indexed": false,
          "name": "timestamp",
          "type": "uint256"
        }
      ],
      "name": "ProductAdded",
      "type": "event"
    },
    {
      "anonymous": false,
      "inputs": [
        {
          "indexed": true,
          "name": "productId",
          "type": "uint256"
        },
        {
          "indexed": false,
          "name": "status",
          "type": "string"
        },
        {
          "indexed": false,
          "name": "timestamp",
          "type": "uint256"
        }
      ],
      "name": "StatusUpdated",
      "type": "event"
    },
    {
      "constant": false,
      "inputs": [
        {
          "name": "_name",
          "type": "string"
        },
        {
          "name": "_initialStatus",
          "type": "string"
        }
      ],
      "name": "addProduct",
      "outputs": [],
      "payable": false,
      "stateMutability": "nonpayable",
      "type": "function"
    },
    {
      "constant": false,
      "inputs": [
        {
          "name": "_productId",
          "type": "uint256"
        },
        {
          "name": "_status",
          "type": "string"
        }
      ],
      "name": "updateStatus",
      "outputs": [],
      "payable": false,
      "stateMutability": "nonpayable",
      "type": "function"
    },
    {
      "constant": true,
      "inputs": [
        {
          "name": "_productId",
          "type": "uint256"
        }
      ],
      "name": "getProduct",
      "outputs": [
        {
          "name": "",
          "type": "string"
        },
        {
          "name": "",
          "type": "string"
        },
        {
          "name": "",
          "type": "uint256"
        }
      ],
      "payable": false,
      "stateMutability": "view",
      "type": "function"
    }
  ],
  "bytecode": "0x6080604052600060025534801561001557600080fd5b50336000806101000a81548173ffffffffffffffffffffffffffffffffffffffff021916908373ffffffffffffffffffffffffffffffffffffffff160217905550610f98806100656000396000f3fe60806040526004361061005b5760003560e01c63ffffffff1680637acc0b20146100605780638da5cb5b1461018e578063b9db15b4146101e5578063ca2efb551461030c578063d1b34dd81461046b578063e0f6ef871461053d575b600080fd5b34801561006c57600080fd5b506100996004803603602081101561008357600080fd5b8101908080359060200190929190505050610568565b604051808060200185815260200180602001848152602001838103835287818151815260200191508051906020019080838360005b838110156100e95780820151818401526020810190506100ce565b50505050905090810190601f1680156101165780820380516001836020036101000a031916815260200191505b50838103825285818151815260200191508051906020019080838360005b8381101561014f578082015181840152602081019050610134565b50505050905090810190601f16801561017c5780820380516001836020036101000a031916815260200191505b50965050505050505060405180910390f35b34801561019a57600080fd5b506101a36106c8565b604051808273ffffffffffffffffffffffffffffffffffffffff1673ffffffffffffffffffffffffffffffffffffffff16815260200191505060405180910390f35b3480156101f157600080fd5b5061021e6004803603602081101561020857600080fd5b81019080803590602001909291905050506106ed565b604051808060200180602001848152602001838103835286818151815260200191508051906020019080838360005b8381101561026857808201518184015260208101905061024d565b50505050905090810190601f1680156102955780820380516001836020036101000a031916815260200191505b50838103825285818151815260200191508051906020019080838360005b838110156102ce5780820151818401526020810190506102b3565b50505050905090810190601f1680156102fb5780820380516001836020036101000a031916815260200191505b509550505050505060405180910390f35b34801561031857600080fd5b506104696004803603604081101561032f57600080fd5b810190808035906020019064010000000081111561034c57600080fd5b82018360208201111561035e57600080fd5b8035906020019184600183028401116401000000008311171561038057600080fd5b91908080601f016020809104026020016040519081016040528093929190818152602001838380828437600081840152601f19601f820116905080830192505050505050509192919290803590602001906401000000008111156103e357600080fd5b8201836020820111156103f557600080fd5b8035906020019184600183028401116401000000008311171561041757600080fd5b91908080601f016020809104026020016040519081016040528093929190818152602001838380828437600081840152601f19601f82011690508083019250505050505050919291929050505061091b565b005b34801561047757600080fd5b5061053b6004803603604081101561048e57600080fd5b8101908080359060200190929190803590602001906401000000008111156104b557600080fd5b8201836020820111156104c757600080fd5b803590602001918460018302840111640100000000831117156104e957600080fd5b91908080601f016020809104026020016040519081016040528093929190818152602001838380828437600081840152601f19601f820116905080830192505050505050509192919290505050610bb9565b005b34801561054957600080fd5b50610552610e18565b6040518082815260200191505060405180910390f35b6001602052806000526040600020600091509050806000018054600181600116156101000203166002900480601f0160208091040260200160405190810160405280929190818152602001828054600181600116156101000203166002900480156106145780601f106105e957610100808354040283529160200191610614565b820191906000526020600020905b8154815290600101906020018083116105f757829003601f168201915b505050505090806001015490806002018054600181600116156101000203166002900480601f0160208091040260200160405190810160405280929190818152602001828054600181600116156101000203166002900480156106b85780601f1061068d576101008083540402835291602001916106b8565b820191906000526020600020905b81548152906001019060200180831161069b57829003601f168201915b5050505050908060030154905084565b6000809054906101000a900473ffffffffffffffffffffffffffffffffffffffff1681565b6060806000808411801561070357506002548411155b1515610777576040517f08c379a00000000000000000000000000000000000000000000000000000000081526004018080602001828103825260168152602001807f50726f6475637420646f6573206e6f742065786973740000000000000000000081525060200191505060405180910390fd5b61077f610e1e565b6001600086815260200190815260200160002060806040519081016040529081600082018054600181600116156101000203166002900480601f0160208091040260200160405190810160405280929190818152602001828054600181600116156101000203166002900480156108375780601f1061080c57610100808354040283529160200191610837565b820191906000526020600020905b81548152906001019060200180831161081a57829003601f168201915b5050505050815260200160018201548152602001600282018054600181600116156101000203166002900480601f0160208091040260200160405190810160405280929190818152602001828054600181600116156101000203166002900480156108e35780601f106108b8576101008083540402835291602001916108e3565b820191906000526020600020905b8154815290600101906020018083116108c657829003601f168201915b505050505081526020016003820154815250509050806000015181604001518260600151829250819150935093509350509193909250565b6000809054906101000a900473ffffffffffffffffffffffffffffffffffffffff1673ffffffffffffffffffffffffffffffffffffffff163373ffffffffffffffffffffffffffffffffffffffff16141515610a05576040517f08c379a00000000000000000000000000000000000000000000000000000000081526004018080602001828103825260268152602001807f4f6e6c7920746865206f776e65722063616e20706572666f726d20746869732081526020017f616374696f6e000000000000000000000000000000000000000000000000000081525060400191505060405180910390fd5b6002600081548092919060010191905055506080604051908101604052808381526020016002548152602001828152602001428152506001600060025481526020019081526020016000206000820151816000019080519060200190610a6c929190610e47565b50602082015181600101556040820151816002019080519060200190610a93929190610e47565b50606082015181600301559050506002547f7a092309290915a35151881d9282456b222c739a7d845acd25a6c13b75d62f13838342604051808060200180602001848152602001838103835286818151815260200191508051906020019080838360005b83811015610b12578082015181840152602081019050610af7565b50505050905090810190601f168015610b3f5780820380516001836020036101000a031916815260200191505b50838103825285818151815260200191508051906020019080838360005b83811015610b78578082015181840152602081019050610b5d565b50505050905090810190601f168015610ba55780820380516001836020036101000a031916815260200191505b509550505050505060405180910390a25050565b6000809054906101000a900473ffffffffffffffffffffffffffffffffffffffff1673ffffffffffffffffffffffffffffffffffffffff163373ffffffffffffffffffffffffffffffffffffffff16141515610ca3576040517f08c379a00000000000000000000000000000000000000000000000000000000081526004018080602001828103825260268152602001807f4f6e6c7920746865206f776e65722063616e20706572666f726d20746869732081526020017f616374696f6e000000000000000000000000000000000000000000000000000081525060400191505060405180910390fd5b600082118015610cb557506002548211155b1515610d29576040517f08c379a00000000000000000000000000000000000000000000000000000000081526004018080602001828103825260168152602001807f50726f6475637420646f6573206e6f742065786973740000000000000000000081525060200191505060405180910390fd5b80600160008481526020019081526020016000206002019080519060200190610d53929190610ec7565b50426001600084815260200190815260200160002060030181905550817f8f06a6a7dcdfa9dacca5f151d0d13cd9437b0faa08953456979391d13f4d346f82426040518080602001838152602001828103825284818151815260200191508051906020019080838360005b83811015610dd9578082015181840152602081019050610dbe565b50505050905090810190601f168015610e065780820380516001836020036101000a031916815260200191505b50935050505060405180910390a25050565b60025481565b608060405190810160405280606081526020016000815260200160608152602001600081525090565b828054600181600116156101000203166002900490600052602060002090601f016020900481019282601f10610e8857805160ff1916838001178555610eb6565b82800160010185558215610eb6579182015b82811115610eb5578251825591602001919060010190610e9a565b5b509050610ec39190610f47565b5090565b828054600181600116156101000203166002900490600052602060002090601f016020900481019282601f10610f0857805160ff1916838001178555610f36565b82800160010185558215610f36579182015b82811115610f35578251825591602001919060010190610f1a565b5b509050610f439190610f47565b5090565b610f6991905b80821115610f65576000816000905550600101610f4d565b5090565b9056fea165627a7a72305820028f0d61771f940ac92bfd5e1fb4cad939fc4b3527b105a41749f8b57025409d0029",
  "source": "// SPDX-License-Identifier: MIT\npragma solidity ^0.5.0;\n\ncontract SupplyChain {\n    address public owner;\n\n    struct Product {\n        string name;\n        uint256 productId;\n        string status;\n        uint256 timestamp;\n    }\n\n    mapping(uint256 => Product) public products;\n    uint256 public productCount = 0;\n\n    event ProductAdded(uint256 indexed productId, string name, string status, uint256 timestamp);\n    event StatusUpdated(uint256 indexed productId, string status, uint256 timestamp);\n\n    constructor() public {\n        owner = msg.sender;\n    }\n\n    modifier onlyOwner() {\n        require(msg.sender == owner, \"Only the owner can perform this action\");\n        _;\n    }\n\n    function addProduct(string memory _name, string memory _initialStatus) public onlyOwner {\n        productCount++;\n        products[productCount] = Product(_name, productCount, _initialStatus, now);\n        emit ProductAdded(productCount, _name, _initialStatus, now);\n    }\n\n    function updateStatus(uint256 _productId, string memory _status) public onlyOwner {\n        require(_productId > 0 && _productId <= productCount, \"Product does not exist\");\n        products[_productId].status = _status;\n        products[_productId].timestamp = now;\n        emit StatusUpdated(_productId, _status, now);\n    }\n\n    function getProduct(uint256 _productId) public view returns (string memory, string memory, uint256) {\n        require(_productId > 0 && _productId <= productCount, \"Product does not exist\");\n        Product memory p = products[_productId];\n        return (p.name, p.status, p.timestamp);\n    }\n}\n",
  "sourcePath": "/home/huylx/workspace/SIT728/HD_task/contracts/SupplyChain.sol",
  "compiler": {
    "name": "solc",
    "version": "0.5.0+commit.1d4f565a.Emscripten.clang"
  },
  "schemaVersion": "3.4.16",
  "updatedAt": "2024-09-03T10:36:18.535Z",
  "networkType": "ethereum",
  "devdoc": {
    "methods": {}
  },
  "userdoc": {
    "methods": {}
  }
}